{
  "_format": "hh3-artifact-1",
  "contractName": "ConfidentialERC7540Factory",
  "sourceName": "contracts/factory/ConfidentialERC7540Factory.sol",
  "abi": [
    {
      "anonymous": false,
      "inputs": [
        {
          "indexed": true,
          "internalType": "address",
          "name": "vault",
          "type": "address"
        },
        {
          "indexed": true,
          "internalType": "address",
          "name": "asset",
          "type": "address"
        },
        {
          "indexed": true,
          "internalType": "address",
          "name": "initialOwner",
          "type": "address"
        },
        {
          "indexed": false,
          "internalType": "string",
          "name": "name",
          "type": "string"
        },
        {
          "indexed": false,
          "internalType": "string",
          "name": "symbol",
          "type": "string"
        }
      ],
      "name": "ConfidentialERC7540Created",
      "type": "event"
    },
    {
      "inputs": [
        {
          "internalType": "contract IERC7984",
          "name": "asset",
          "type": "address"
        },
        {
          "internalType": "string",
          "name": "name",
          "type": "string"
        },
        {
          "internalType": "string",
          "name": "symbol",
          "type": "string"
        },
        {
          "internalType": "string",
          "name": "contractURI",
          "type": "string"
        },
        {
          "internalType": "address",
          "name": "initialOwner",
          "type": "address"
        },
        {
          "internalType": "bytes32",
          "name": "salt",
          "type": "bytes32"
        }
      ],
      "name": "createVault",
      "outputs": [
        {
          "internalType": "address",
          "name": "vault",
          "type": "address"
        }
      ],
      "stateMutability": "nonpayable",
      "type": "function"
    },
    {
      "inputs": [
        {
          "internalType": "contract IERC7984",
          "name": "asset",
          "type": "address"
        },
        {
          "internalType": "string",
          "name": "name",
          "type": "string"
        },
        {
          "internalType": "string",
          "name": "symbol",
          "type": "string"
        },
        {
          "internalType": "string",
          "name": "contractURI",
          "type": "string"
        },
        {
          "internalType": "address",
          "name": "initialOwner",
          "type": "address"
        },
        {
          "internalType": "bytes32",
          "name": "salt",
          "type": "bytes32"
        }
      ],
      "name": "predictVaultAddress",
      "outputs": [
        {
          "internalType": "address",
          "name": "",
          "type": "address"
        }
      ],
      "stateMutability": "view",
      "type": "function"
    }
  ],
  "bytecode": "0x6080604052348015600e575f5ffd5b5061343b8061001c5f395ff3fe608060405234801561000f575f5ffd5b5060043610610034575f3560e01c80637f36430114610038578063dd481b1d14610067575b5f5ffd5b61004b610046366004610268565b61007a565b6040516001600160a01b03909116815260200160405180910390f35b61004b610075366004610268565b610129565b5f818a8a8a8a8a8a8a8a604051610090906101ff565b6100a198979695949392919061035c565b8190604051809103905ff59050801580156100be573d5f5f3e3d5ffd5b509050826001600160a01b03168a6001600160a01b0316826001600160a01b03167f0917cc8fda05acb33728b3b29ba390406ea2636f0947eb429d03a0fb7df26a7a8c8c8c8c60405161011494939291906103c6565b60405180910390a49998505050505050505050565b5f5f6040518060200161013b906101ff565b601f1982820381018352601f90910116604081905261016c908d908d908d908d908d908d908d908d9060200161035c565b60408051601f198184030181529082905261018a929160200161040e565b60408051808303601f1901815282825280516020918201206001600160f81b0319828501523060601b6bffffffffffffffffffffffff191660218501526035840196909652605580840196909652815180840390960186526075909201905283519301929092209a9950505050505050505050565b612fdb8061042b83390190565b6001600160a01b0381168114610220575f5ffd5b50565b5f5f83601f840112610233575f5ffd5b50813567ffffffffffffffff81111561024a575f5ffd5b602083019150836020828501011115610261575f5ffd5b9250929050565b5f5f5f5f5f5f5f5f5f60c08a8c031215610280575f5ffd5b893561028b8161020c565b985060208a013567ffffffffffffffff8111156102a6575f5ffd5b6102b28c828d01610223565b90995097505060408a013567ffffffffffffffff8111156102d1575f5ffd5b6102dd8c828d01610223565b90975095505060608a013567ffffffffffffffff8111156102fc575f5ffd5b6103088c828d01610223565b90955093505060808a013561031c8161020c565b8092505060a08a013590509295985092959850929598565b81835281816020850137505f828201602090810191909152601f909101601f19169091010190565b6001600160a01b038916815260a0602082018190525f90610380908301898b610334565b828103604084015261039381888a610334565b905082810360608401526103a8818688610334565b91505060018060a01b03831660808301529998505050505050505050565b604081525f6103d9604083018688610334565b82810360208401526103ec818587610334565b979650505050505050565b5f81518060208401855e5f93019283525090919050565b5f61042261041c83866103f7565b846103f7565b94935050505056fe60a060405234801561000f575f5ffd5b50604051612fdb380380612fdb83398101604081905261002e91610239565b80858585858282826100418383836100c5565b505f9150506001600160a01b03851661007e576040516307a238ff60e01b81526001600160a01b0390911660048201526024015b60405180910390fd5b5050506001600160a01b039182166080525081166100b157604051631e4fbdf760e01b81525f6004820152602401610075565b6100ba81610136565b50505050505061042b565b7fb419a3e8264d03c5da9315fb9617f069307274561d78c35809e10a1cfb7156007fb419a3e8264d03c5da9315fb9617f069307274561d78c35809e10a1cfb7156036101118582610371565b50600481016101208482610371565b506005810161012f8382610371565b5050505050565b5f80546001600160a01b038381166001600160a01b0319831681178455604051919092169283917f8be0079c531659141344cd1fd0a4f28419497f9722a3daafe3b4186f6b6457e09190a35050565b6001600160a01b0381168114610199575f5ffd5b50565b634e487b7160e01b5f52604160045260245ffd5b5f82601f8301126101bf575f5ffd5b81516001600160401b038111156101d8576101d861019c565b604051601f8201601f19908116603f011681016001600160401b03811182821017156102065761020661019c565b60405281815283820160200185101561021d575f5ffd5b8160208501602083015e5f918101602001919091529392505050565b5f5f5f5f5f60a0868803121561024d575f5ffd5b855161025881610185565b60208701519095506001600160401b03811115610273575f5ffd5b61027f888289016101b0565b604088015190955090506001600160401b0381111561029c575f5ffd5b6102a8888289016101b0565b606088015190945090506001600160401b038111156102c5575f5ffd5b6102d1888289016101b0565b92505060808601516102e281610185565b809150509295509295909350565b600181811c9082168061030457607f821691505b60208210810361032257634e487b7160e01b5f52602260045260245ffd5b50919050565b601f82111561036c57805f5260205f20601f840160051c8101602085101561034d5750805b601f840160051c820191505b8181101561012f575f8155600101610359565b505050565b81516001600160401b0381111561038a5761038a61019c565b61039e8161039884546102f0565b84610328565b6020601f8211600181146103d0575f83156103b95750848201515b5f19600385901b1c1916600184901b17845561012f565b5f84815260208120601f198516915b828110156103ff57878501518255602094850194600190920191016103df565b508482101561041c57868401515f19600387901b60f8161c191681555b50505050600190811b01905550565b608051612b756104665f395f8181610330015281816110af01528181611e4301528181611e8d01528181611f9f0152611fef0152612b755ff3fe608060405234801561000f575f5ffd5b5060043610610228575f3560e01c80638da5cb5b1161012a578063c7b8a75e116100b4578063e8a3d48511610079578063e8a3d48514610533578063eb3155b51461053b578063f2fde38b1461054e578063f653258e14610561578063f9609f0814610569575f5ffd5b8063c7b8a75e146104e7578063d4febb96146104fa578063d83de68614610486578063de6421191461050d578063e064b9bb14610520575f5ffd5b8063b4696dbf116100fa578063b4696dbf14610473578063b4eb751414610486578063b6363cf214610499578063bba06f27146104ac578063c3702989146104bf575f5ffd5b80638da5cb5b1461042057806393a044981461043057806395d89b4114610443578063aff947c41461044b575f5ffd5b806338d52e0f116101b65780635bebed7e1161017b5780635bebed7e146103df57806362a2434b146103f25780636829db411461029f578063715018a61461040557806383b2e8861461040d575f5ffd5b806338d52e0f1461032e578063397f8c8c14610368578063537d3c501461037d57806353dc1dd31461039057806354095227146103b8575f5ffd5b80631af2574e116101fc5780631af2574e146102b25780632fb74e62146102c5578063313ce567146102d8578063344ff101146102e757806334c457431461031b575f5ffd5b806288d3e51461022c57806301ffc9a71461026757806306fdde031461028a57806310dfce1b1461029f575b5f5ffd5b61025461023a3660046123fe565b6001600160a01b03165f9081526004602052604090205490565b6040519081526020015b60405180910390f35b61027a610275366004612417565b61057c565b604051901515815260200161025e565b6102926105a6565b60405161025e919061243e565b6102546102ad3660046124b1565b610666565b6102546102c036600461250b565b61070d565b6102546102d3366004612575565b61072f565b6040516012815260200161025e565b6102546102f53660046123fe565b6001600160a01b03165f9081525f516020612b205f395f51905f52602052604090205490565b6102546103293660046125cb565b610750565b7f00000000000000000000000000000000000000000000000000000000000000005b6040516001600160a01b03909116815260200161025e565b61037b610376366004612664565b6107ae565b005b61025461038b366004612575565b610946565b61025461039e3660046123fe565b6001600160a01b03165f9081526003602052604090205490565b7fb419a3e8264d03c5da9315fb9617f069307274561d78c35809e10a1cfb71560254610254565b6102546103ed36600461268e565b61099f565b61025461040036600461250b565b6109f1565b61037b610a07565b61025461041b3660046126b6565b610a1a565b5f546001600160a01b0316610350565b61025461043e3660046126b6565b610a65565b610292610ab0565b6102546104593660046123fe565b6001600160a01b03165f9081526002602052604090205490565b61037b610481366004612664565b610aee565b61025461049436600461250b565b610c6c565b61027a6104a73660046126ef565b610d10565b6102546104ba3660046126ef565b610d6e565b6102546104cd3660046123fe565b6001600160a01b03165f9081526001602052604090205490565b6102546104f5366004612717565b610e97565b61037b610508366004612781565b610f1f565b61025461051b3660046127c0565b610f2e565b61025461052e366004612717565b610f55565b610292610fa2565b610254610549366004612849565b610fe0565b61037b61055c3660046123fe565b61105b565b610254611098565b6102546105773660046126ef565b611125565b5f6001600160e01b0319821663daa68d4960e01b14806105a057506105a08261123f565b92915050565b7fb419a3e8264d03c5da9315fb9617f069307274561d78c35809e10a1cfb71560380546060915f516020612b205f395f51905f52916105e490612883565b80601f016020809104026020016040519081016040528092919081815260200182805461061090612883565b801561065b5780601f106106325761010080835404028352916020019161065b565b820191905f5260205f20905b81548152906001019060200180831161063e57829003601f168201915b505050505091505090565b60405162461bcd60e51b815260206004820152606360248201527f436f6e666964656e7469616c455243373534303a2073796e63206465706f736960448201527f742f6d696e742064697361626c65643b2075736520726571756573744465706f60648201527f736974202b206465706f7369742872656365697665722c20636f6e74726f6c6c60848201526265722960e81b60a48201525f9060c4015b60405180910390fd5b5f61072361071c878787611273565b84846112e7565b90505b95945050505050565b5f610745338661074087878761140a565b611414565b90505b949350505050565b5f61075b8833610d10565b8833909161077e57604051630f3e596760e31b81526004016107049291906128bb565b5050610797888861079089898961140a565b868661148a565b90506107a381336114e1565b979650505050505050565b6107b66114eb565b6001600160a01b0381166107dd5760405163d66a33e760e01b815260040160405180910390fd5b6107e682611517565b6001600160a01b0381165f90815260036020526040812054819061080a9085611521565b6001600160a01b0385165f90815260036020526040902054919350915061083490839083906115c3565b6001600160a01b0384165f908152600360205260409020819055905061085981611517565b6108738161086e5f546001600160a01b031690565b611666565b61087d8184611666565b5f610891838661088c5f611670565b6115c3565b6001600160a01b0385165f90815260046020526040812054919250906108b790836116ea565b6001600160a01b0386165f90815260046020526040902081905590506108dc81611517565b6108f18161086e5f546001600160a01b031690565b6108fb8186611666565b846001600160a01b03167fec58bd7026b07d862cd93fbb48da498adc457c91d35a4680c84b23fc751e7e298360405161093691815260200190565b60405180910390a2505050505050565b5f610951843361177b565b84339091610984576040516367cfe80560e01b815260048101929092526001600160a01b03166024820152604401610704565b5050610993338686868661148a565b905061074881336114e1565b5f6109aa823361177b565b823390916109dd576040516367cfe80560e01b815260048101929092526001600160a01b03166024820152604401610704565b50506109ea338484611414565b9392505050565b5f610723610a00878787611273565b84846117f5565b610a0f6114eb565b610a185f61191a565b565b5f610a258433611969565b84339091610a58576040516367cfe80560e01b815260048101929092526001600160a01b03166024820152604401610704565b50506107488484846117f5565b5f610a708433611969565b84339091610aa3576040516367cfe80560e01b815260048101929092526001600160a01b03166024820152604401610704565b50506107488484846112e7565b7fb419a3e8264d03c5da9315fb9617f069307274561d78c35809e10a1cfb71560480546060915f516020612b205f395f51905f52916105e490612883565b610af66114eb565b6001600160a01b038116610b1d5760405163d66a33e760e01b815260040160405180910390fd5b610b2682611517565b6001600160a01b0381165f908152600160205260408120548190610b4a9085611521565b6001600160a01b0385165f908152600160205260409020549193509150610b7490839083906115c3565b6001600160a01b0384165f9081526001602052604090208190559050610b9981611517565b610bae8161086e5f546001600160a01b031690565b610bb88184611666565b5f610bc7838661088c5f611670565b6001600160a01b0385165f9081526002602052604081205491925090610bed90836116ea565b6001600160a01b0386165f9081526002602052604090208190559050610c1281611517565b610c278161086e5f546001600160a01b031690565b610c318186611666565b846001600160a01b03167fc3510882237e31f06830eeb3919134c1618750e79c09433fbce2abe5c057d9948360405161093691815260200190565b5f60405162461bcd60e51b81526004016107049060208082526064908201527f436f6e666964656e7469616c455243373534303a2073796e632077697468647260408201527f61772f72656465656d2064697361626c65643b2075736520726571756573745260608201527f656465656d202b2072656465656d2872656365697665722c20636f6e74726f6c6080820152636c65722960e01b60a082015260c00190565b5f5f516020612b205f395f51905f526001600160a01b03848116908416148061074857506001600160a01b038085165f90815260018301602090815260408083209387168352929052205465ffffffffffff16421115949350505050565b5f6001600160a01b038216610d965760405163d66a33e760e01b815260040160405180910390fd5b610da08233610d10565b82339091610dc357604051630f3e596760e31b81526004016107049291906128bb565b50506001600160a01b0382165f9081526004602052604081205490610de781611670565b6001600160a01b0385165f9081526004602052604090208190559050610e0c81611517565b5f5f610e16611972565b91509150610e258483836119ac565b9450610e313085611a06565b505f610e3d8887611a47565b9050876001600160a01b0316876001600160a01b03167fe86fdcbbfbfb3465ef5adbe8a24ff52891385becd7520c3c2c4831c5cb87f04a83604051610e8491815260200190565b60405180910390a3505050505092915050565b5f610ea2843361177b565b84339091610ed5576040516367cfe80560e01b815260048101929092526001600160a01b03166024820152604401610704565b5050610ee18633610d10565b86339091610f0457604051630f3e596760e31b81526004016107049291906128bb565b5050610f13868686868661148a565b905061072681336114e1565b610f2a338383611a6f565b5050565b5f610f3f338861079089898961140a565b9050610f4b81336114e1565b9695505050505050565b5f610f608633610d10565b86339091610f8357604051630f3e596760e31b81526004016107049291906128bb565b50505f610f96878761074088888861140a565b905061072381336114e1565b7fb419a3e8264d03c5da9315fb9617f069307274561d78c35809e10a1cfb71560580546060915f516020612b205f395f51905f52916105e490612883565b5f610feb823361177b565b8233909161101e576040516367cfe80560e01b815260048101929092526001600160a01b03166024820152604401610704565b505061102a8433610d10565b8433909161104d57604051630f3e596760e31b81526004016107049291906128bb565b50505f610993858585611414565b6110636114eb565b6001600160a01b03811661108c57604051631e4fbdf760e01b81525f6004820152602401610704565b6110958161191a565b50565b60405163344ff10160e01b81523060048201525f907f00000000000000000000000000000000000000000000000000000000000000006001600160a01b03169063344ff10190602401602060405180830381865afa1580156110fc573d5f5f3e3d5ffd5b505050506040513d601f19601f8201168201806040525081019061112091906128d5565b905090565b5f6001600160a01b03821661114d5760405163d66a33e760e01b815260040160405180910390fd5b6111578233610d10565b8233909161117a57604051630f3e596760e31b81526004016107049291906128bb565b50506001600160a01b0382165f908152600260205260408120549061119e81611670565b6001600160a01b0385165f90815260026020526040902081905590506111c381611517565b5f5f6111cd611972565b915091506111dc848383611b17565b94506111e88786611b3b565b50866001600160a01b0316866001600160a01b03167e55da3782a2d8d50f7eb73d32d738b48c89f98d2856d2a84bb4c19ae74626358760405161122d91815260200190565b60405180910390a35050505092915050565b5f6001600160e01b031982166312563ca960e21b14806105a057506301ffc9a760e01b6001600160e01b03198316146105a0565b5f8361127d611b7c565b6001600160a01b031663d0571e428233878760236040518663ffffffff1660e01b81526004016112b1959493929190612944565b5f604051808303815f87803b1580156112c8575f5ffd5b505af11580156112da573d5f5f3e3d5ffd5b5092979650505050505050565b5f6001600160a01b03831661130f5760405163d66a33e760e01b815260040160405180910390fd5b6113198233610d10565b8233909161133c57604051630f3e596760e31b81526004016107049291906128bb565b50505f6113498386611b85565b6001600160a01b0385165f908152600160205260408120549192509061136f90836116ea565b6001600160a01b0386165f908152600160205260409020819055905061139481611517565b6113a98161086e5f546001600160a01b031690565b6113b38186611666565b60408051338152602081018490525f916001600160a01b0380881692908916917faa9f37369e1b63157f509c0f9b4b366c6dcdf7ffdf40af5213ab6f441fd60b3891015b60405180910390a4505f95945050505050565b5f8361127d611b90565b5f806001600160a01b0385166114495760405163ee457ebf60e01b81526001600160a01b039091166004820152602401610704565b505f6001600160a01b03841661147e57604051638d51880160e01b81526001600160a01b039091166004820152602401610704565b50610748848484611b99565b5f5f611497878787611414565b90505f6114a8338989858989611bd2565b90505f6114c8888a6114c3856114bd5f611cca565b88611cd3565b611b99565b90506114d48382611cdc565b9998505050505050505050565b610f2a8282611cfe565b5f546001600160a01b03163314610a185760405163118cdaa760e01b8152336004820152602401610704565b6110958130611d82565b5f5f5f5f61152d611b7c565b6001600160a01b03166386fc3bc3611546886023611dd9565b611551886023611dd9565b6040516001600160e01b031960e085901b1681526004810192909252602482015260440160408051808303815f875af1158015611590573d5f5f3e3d5ffd5b505050506040513d601f19601f820116820180604052508101906115b49190612989565b909450925050505b9250929050565b5f6115cc611b7c565b6001600160a01b031663973ab10b6115e4865f611dd9565b6115ef866023611dd9565b6115fa866023611dd9565b6040516001600160e01b031960e086901b1681526004810193909352602483019190915260448201526064016020604051808303815f875af1158015611642573d5f5f3e3d5ffd5b505050506040513d601f19601f8201168201806040525081019061074891906128d5565b610f2a8282611d82565b5f611679611b7c565b60405163d56497c360e01b81526001600160a01b03919091169063d56497c3906116aa9085906023906004016129ab565b6020604051808303815f875af11580156116c6573d5f5f3e3d5ffd5b505050506040513d601f19601f820116820180604052508101906105a091906128d5565b5f6116f3611b7c565b6001600160a01b031663d1de592a61170c856023611dd9565b611717856023611dd9565b6040516001600160e01b031960e085901b168152600481019290925260248201526044016020604051808303815f875af1158015611757573d5f5f3e3d5ffd5b505050506040513d601f19601f820116820180604052508101906109ea91906128d5565b5f611784611b90565b6040516382027b6d60e01b8152600481018590526001600160a01b03848116602483015291909116906382027b6d90604401602060405180830381865afa1580156117d1573d5f5f3e3d5ffd5b505050506040513d601f19601f820116820180604052508101906109ea91906129c8565b5f6001600160a01b03831661181d5760405163d66a33e760e01b815260040160405180910390fd5b6118278233610d10565b8233909161184a57604051630f3e596760e31b81526004016107049291906128bb565b505061185584611517565b5f611861833087611414565b905061186c81611517565b6001600160a01b0384165f9081526003602052604081205461188e90836116ea565b6001600160a01b0386165f90815260036020526040902081905590506118b381611517565b6118c88161086e5f546001600160a01b031690565b6118d28186611666565b60408051338152602081018490525f916001600160a01b0380881692908916917f280f06cd2d7c5d7b6a7087e4228f224f243703c9cbd44772e10599e475972ce991016113f7565b5f80546001600160a01b038381166001600160a01b0319831681178455604051919092169283917f8be0079c531659141344cd1fd0a4f28419497f9722a3daafe3b4186f6b6457e09190a35050565b5f611784611b7c565b5f5f61197c611098565b91506119a67fb419a3e8264d03c5da9315fb9617f069307274561d78c35809e10a1cfb7156025490565b90509091565b5f5f6119ca856119c5866119c06001611670565b6116ea565b611def565b90505f6119e6846119c0835b6119e190600a612ade565b611670565b90506119f28282611e11565b92506119fd83611517565b50509392505050565b5f806001600160a01b038416611a3b5760405163ee457ebf60e01b81526001600160a01b039091166004820152602401610704565b506109ea835f84611b99565b5f611a528383611e33565b90506105a0611a5f611098565b5f546001600160a01b0316611666565b6001600160a01b038381165f8181527fb419a3e8264d03c5da9315fb9617f069307274561d78c35809e10a1cfb7156016020908152604080832094871680845294825291829020805465ffffffffffff191665ffffffffffff8716908117909155825190815291515f516020612b205f395f51905f529493927f921a218a75d18e8ec5704851e6b234a85725b21a2521ce889622c35dedc1fa1292908290030190a350505050565b5f80611b2a856119c5856119c0856119d6565b90505f6119e6856119c06001611670565b5f806001600160a01b038416611b7057604051638d51880160e01b81526001600160a01b039091166004820152602401610704565b506109ea5f8484611b99565b5f611120611f03565b5f611a528383611f98565b5f611120612064565b5f611ba58484846120b8565b90506109ea611a5f7fb419a3e8264d03c5da9315fb9617f069307274561d78c35809e10a1cfb7156025490565b5f846001600160a01b03163b5f03611bf557611bee60016122c2565b9050610f4b565b6040516346083bfd60e01b81526001600160a01b038616906346083bfd90611c29908a908a90899089908990600401612aec565b6020604051808303815f875af1925050508015611c63575060408051601f3d908101601f19168201909252611c60918101906128d5565b60015b611bee573d808015611c90576040519150601f19603f3d011682016040523d82523d5f602084013e611c95565b606091505b5080515f03611cc257604051638d51880160e01b81526001600160a01b0387166004820152602401610704565b805181602001fd5b5f611679611b90565b5f6115cc611b90565b5f611ce5611b90565b6001600160a01b03166341aa008061170c856023611dd9565b611d128260061a60f81b600160f81b161590565b610f2a57611d1e611b90565b604051630f8e573b60e21b8152600481018490526001600160a01b0383811660248301529190911690633e395cec906044015b5f604051808303815f87803b158015611d68575f5ffd5b505af1158015611d7a573d5f5f3e3d5ffd5b505050505050565b611d968260061a60f81b600160f81b161590565b610f2a57611da2611b7c565b604051635ca4b5b160e11b8152600481018490526001600160a01b038381166024830152919091169063b9496b6290604401611d51565b5f8215611de657826109ea565b6109ea8261230d565b5f611df8611b7c565b6001600160a01b03166396ce1ec761170c856023611dd9565b5f611e1a611b7c565b6001600160a01b0316633029740061170c856023611dd9565b5f611e3d82611517565b611e67827f000000000000000000000000000000000000000000000000000000000000000061234b565b604051632df5f6bf60e11b81526001600160a01b038481166004830152602482018490527f00000000000000000000000000000000000000000000000000000000000000001690635bebed7e906044016020604051808303815f875af1158015611ed3573d5f5f3e3d5ffd5b505050506040513d601f19601f82011682018060405250810190611ef791906128d5565b90506105a08184611666565b5f4661a4b103611f1257505f90565b4662066eee03611f35575073d464b198f06756a1d00be223634b85e0a731c22990565b46617a6903611f5757507344c00793ad4975617b3b5fc27d4fb78e772c823690565b60405162461bcd60e51b81526020600482015260166024820152752737bc1d102ab739bab83837b93a32b21031b430b4b760511b6044820152606401610704565b5f611fc3827f000000000000000000000000000000000000000000000000000000000000000061234b565b60405163eb3155b560e01b81526001600160a01b038481166004830152306024830152604482018490527f0000000000000000000000000000000000000000000000000000000000000000169063eb3155b5906064016020604051808303815f875af1158015612035573d5f5f3e3d5ffd5b505050506040513d601f19601f8201168201806040525081019061205991906128d5565b90506105a081611517565b5f4661a4b10361207357505f90565b4662066eee03612096575073d464b198f06756a1d00be223634b85e0a731c22990565b46617a6903611f5757507339847aeba923cc7367d4684194091d022b3f854890565b5f5f516020612b205f395f51905f5281806001600160a01b038716612113576120e5836002015486612355565b80925081935050506120fc82828560020154611cd3565b90506121078161237a565b600283018190556121a2565b6001600160a01b0387165f908152602084905260409020548781612156576040516317fe473760e21b81526001600160a01b039091166004820152602401610704565b506121618187612384565b9093509150612171838383611cd3565b915061217c8261237a565b6121868289612390565b506001600160a01b0387165f9081526020849052604090208190555b6121b582866121b05f611cca565b611cd3565b93506001600160a01b0386166121ea576121d3836002015485611cdc565b90506121de8161237a565b6002830181905561223c565b6001600160a01b0386165f9081526020849052604090205461220c908561239a565b90506122178161237a565b6122218187612390565b6001600160a01b0386165f9081526020849052604090208190555b6001600160a01b03871615612255576122558488612390565b6001600160a01b0386161561226e5761226e8487612390565b6122778461237a565b83866001600160a01b0316886001600160a01b03167f67500e8d0ed826d2194f514dd0d8124f35648ab6e3fb5e6ed867134cffe661e960405160405180910390a45050509392505050565b5f6122cb611b90565b6001600160a01b031663d56497c3836122e4575f6122e7565b60015b6040516001600160e01b031960e084901b1681526116aa9160ff16905f906004016129ab565b5f602882606381111561232257612322612914565b60f81b6001600160f81b031916901c60084660e01b6001600160e01b031916901c179050919050565b610f2a82826123a3565b5f5f5f5f612361611b90565b6001600160a01b031663f30c4260611546886023611dd9565b61109581306123c3565b5f5f5f5f61152d611b90565b610f2a82826123c3565b5f6116f3611b90565b6123b78260061a60f81b600160f81b161590565b610f2a57611d1e611b7c565b6123d78260061a60f81b600160f81b161590565b610f2a57611da2611b90565b80356001600160a01b03811681146123f9575f5ffd5b919050565b5f6020828403121561240e575f5ffd5b6109ea826123e3565b5f60208284031215612427575f5ffd5b81356001600160e01b0319811681146109ea575f5ffd5b602081525f82518060208401528060208501604085015e5f604082850101526040601f19601f83011684010191505092915050565b5f5f83601f840112612483575f5ffd5b50813567ffffffffffffffff81111561249a575f5ffd5b6020830191508360208285010111156115bc575f5ffd5b5f5f5f5f606085870312156124c4575f5ffd5b84359350602085013567ffffffffffffffff8111156124e1575f5ffd5b6124ed87828801612473565b90945092506125009050604086016123e3565b905092959194509250565b5f5f5f5f5f6080868803121561251f575f5ffd5b85359450602086013567ffffffffffffffff81111561253c575f5ffd5b61254888828901612473565b909550935061255b9050604087016123e3565b9150612569606087016123e3565b90509295509295909350565b5f5f5f5f60608587031215612588575f5ffd5b612591856123e3565b935060208501359250604085013567ffffffffffffffff8111156125b3575f5ffd5b6125bf87828801612473565b95989497509550505050565b5f5f5f5f5f5f5f60a0888a0312156125e1575f5ffd5b6125ea886123e3565b96506125f8602089016123e3565b955060408801359450606088013567ffffffffffffffff81111561261a575f5ffd5b6126268a828b01612473565b909550935050608088013567ffffffffffffffff811115612645575f5ffd5b6126518a828b01612473565b989b979a50959850939692959293505050565b5f5f60408385031215612675575f5ffd5b82359150612685602084016123e3565b90509250929050565b5f5f6040838503121561269f575f5ffd5b6126a8836123e3565b946020939093013593505050565b5f5f5f606084860312156126c8575f5ffd5b833592506126d8602085016123e3565b91506126e6604085016123e3565b90509250925092565b5f5f60408385031215612700575f5ffd5b612709836123e3565b9150612685602084016123e3565b5f5f5f5f5f6080868803121561272b575f5ffd5b612734866123e3565b9450612742602087016123e3565b935060408601359250606086013567ffffffffffffffff811115612764575f5ffd5b61277088828901612473565b969995985093965092949392505050565b5f5f60408385031215612792575f5ffd5b61279b836123e3565b9150602083013565ffffffffffff811681146127b5575f5ffd5b809150509250929050565b5f5f5f5f5f5f608087890312156127d5575f5ffd5b6127de876123e3565b955060208701359450604087013567ffffffffffffffff811115612800575f5ffd5b61280c89828a01612473565b909550935050606087013567ffffffffffffffff81111561282b575f5ffd5b61283789828a01612473565b979a9699509497509295939492505050565b5f5f5f6060848603121561285b575f5ffd5b612864846123e3565b9250612872602085016123e3565b929592945050506040919091013590565b600181811c9082168061289757607f821691505b6020821081036128b557634e487b7160e01b5f52602260045260245ffd5b50919050565b6001600160a01b0392831681529116602082015260400190565b5f602082840312156128e5575f5ffd5b5051919050565b81835281816020850137505f828201602090810191909152601f909101601f19169091010190565b634e487b7160e01b5f52602160045260245ffd5b6064811061109557634e487b7160e01b5f52602160045260245ffd5b8581526001600160a01b03851660208201526080604082018190525f9061296e90830185876128ec565b905061297983612928565b8260608301529695505050505050565b5f5f6040838503121561299a575f5ffd5b505080516020909101519092909150565b828152604081016129bb83612928565b8260208301529392505050565b5f602082840312156129d8575f5ffd5b815180151581146109ea575f5ffd5b634e487b7160e01b5f52601160045260245ffd5b6001815b6001841115612a3657808504811115612a1a57612a1a6129e7565b6001841615612a2857908102905b60019390931c9280026129ff565b935093915050565b5f82612a4c575060016105a0565b81612a5857505f6105a0565b8160018114612a6e5760028114612a7857612a94565b60019150506105a0565b60ff841115612a8957612a896129e7565b50506001821b6105a0565b5060208310610133831016604e8410600b8410161715612ab7575081810a6105a0565b612ac35f1984846129fb565b805f1904821115612ad657612ad66129e7565b029392505050565b5f6109ea60ff841683612a3e565b6001600160a01b03868116825285166020820152604081018490526080606082018190525f906107a390830184866128ec56feb419a3e8264d03c5da9315fb9617f069307274561d78c35809e10a1cfb715600a2646970667358221220785a5012a2857b23a4d137b1e92a0be0beb7dd52c192f9c7105f830dc98521e464736f6c634300081c0033a2646970667358221220ed97ef45b18ba6df39d246bb234ae96ed4a9b78faa30d265523e37c0a21eaeb764736f6c634300081c0033",
  "linkReferences": {},
  "deployedLinkReferences": {},
  "immutableReferences": {},
  "inputSourceName": "project/contracts/factory/ConfidentialERC7540Factory.sol",
  "buildInfoId": "solc-0_8_28-7fedcd91352c12ea1a7ed386ad89dac0d5f5c3f3"
}