{
  "_format": "hh3-artifact-1",
  "contractName": "ConfidentialERC7540Factory",
  "sourceName": "contracts/factory/ConfidentialERC7540Factory.sol",
  "abi": [
    {
      "anonymous": false,
      "inputs": [
        {
          "indexed": true,
          "internalType": "address",
          "name": "vault",
          "type": "address"
        },
        {
          "indexed": true,
          "internalType": "address",
          "name": "asset",
          "type": "address"
        },
        {
          "indexed": true,
          "internalType": "address",
          "name": "initialOwner",
          "type": "address"
        },
        {
          "indexed": false,
          "internalType": "string",
          "name": "name",
          "type": "string"
        },
        {
          "indexed": false,
          "internalType": "string",
          "name": "symbol",
          "type": "string"
        }
      ],
      "name": "ConfidentialERC7540Created",
      "type": "event"
    },
    {
      "inputs": [
        {
          "internalType": "contract IERC7984",
          "name": "asset",
          "type": "address"
        },
        {
          "internalType": "string",
          "name": "name",
          "type": "string"
        },
        {
          "internalType": "string",
          "name": "symbol",
          "type": "string"
        },
        {
          "internalType": "string",
          "name": "contractURI",
          "type": "string"
        },
        {
          "internalType": "address",
          "name": "initialOwner",
          "type": "address"
        },
        {
          "internalType": "bytes32",
          "name": "salt",
          "type": "bytes32"
        }
      ],
      "name": "createVault",
      "outputs": [
        {
          "internalType": "address",
          "name": "vault",
          "type": "address"
        }
      ],
      "stateMutability": "nonpayable",
      "type": "function"
    },
    {
      "inputs": [
        {
          "internalType": "contract IERC7984",
          "name": "asset",
          "type": "address"
        },
        {
          "internalType": "string",
          "name": "name",
          "type": "string"
        },
        {
          "internalType": "string",
          "name": "symbol",
          "type": "string"
        },
        {
          "internalType": "string",
          "name": "contractURI",
          "type": "string"
        },
        {
          "internalType": "address",
          "name": "initialOwner",
          "type": "address"
        },
        {
          "internalType": "bytes32",
          "name": "salt",
          "type": "bytes32"
        }
      ],
      "name": "predictVaultAddress",
      "outputs": [
        {
          "internalType": "address",
          "name": "",
          "type": "address"
        }
      ],
      "stateMutability": "view",
      "type": "function"
    }
  ],
  "bytecode": "0x6080604052348015600e575f5ffd5b506134538061001c5f395ff3fe608060405234801561000f575f5ffd5b5060043610610034575f3560e01c80637f36430114610038578063dd481b1d14610067575b5f5ffd5b61004b610046366004610268565b61007a565b6040516001600160a01b03909116815260200160405180910390f35b61004b610075366004610268565b610129565b5f818a8a8a8a8a8a8a8a604051610090906101ff565b6100a198979695949392919061035c565b8190604051809103905ff59050801580156100be573d5f5f3e3d5ffd5b509050826001600160a01b03168a6001600160a01b0316826001600160a01b03167f0917cc8fda05acb33728b3b29ba390406ea2636f0947eb429d03a0fb7df26a7a8c8c8c8c60405161011494939291906103c6565b60405180910390a49998505050505050505050565b5f5f6040518060200161013b906101ff565b601f1982820381018352601f90910116604081905261016c908d908d908d908d908d908d908d908d9060200161035c565b60408051601f198184030181529082905261018a929160200161040e565b60408051808303601f1901815282825280516020918201206001600160f81b0319828501523060601b6bffffffffffffffffffffffff191660218501526035840196909652605580840196909652815180840390960186526075909201905283519301929092209a9950505050505050505050565b612ff38061042b83390190565b6001600160a01b0381168114610220575f5ffd5b50565b5f5f83601f840112610233575f5ffd5b50813567ffffffffffffffff81111561024a575f5ffd5b602083019150836020828501011115610261575f5ffd5b9250929050565b5f5f5f5f5f5f5f5f5f60c08a8c031215610280575f5ffd5b893561028b8161020c565b985060208a013567ffffffffffffffff8111156102a6575f5ffd5b6102b28c828d01610223565b90995097505060408a013567ffffffffffffffff8111156102d1575f5ffd5b6102dd8c828d01610223565b90975095505060608a013567ffffffffffffffff8111156102fc575f5ffd5b6103088c828d01610223565b90955093505060808a013561031c8161020c565b8092505060a08a013590509295985092959850929598565b81835281816020850137505f828201602090810191909152601f909101601f19169091010190565b6001600160a01b038916815260a0602082018190525f90610380908301898b610334565b828103604084015261039381888a610334565b905082810360608401526103a8818688610334565b91505060018060a01b03831660808301529998505050505050505050565b604081525f6103d9604083018688610334565b82810360208401526103ec818587610334565b979650505050505050565b5f81518060208401855e5f93019283525090919050565b5f61042261041c83866103f7565b846103f7565b94935050505056fe60a060405234801561000f575f5ffd5b50604051612ff3380380612ff383398101604081905261002e91610239565b80858585858282826100418383836100c5565b505f9150506001600160a01b03851661007e576040516307a238ff60e01b81526001600160a01b0390911660048201526024015b60405180910390fd5b5050506001600160a01b039182166080525081166100b157604051631e4fbdf760e01b81525f6004820152602401610075565b6100ba81610136565b50505050505061042b565b7fb419a3e8264d03c5da9315fb9617f069307274561d78c35809e10a1cfb7156007fb419a3e8264d03c5da9315fb9617f069307274561d78c35809e10a1cfb7156036101118582610371565b50600481016101208482610371565b506005810161012f8382610371565b5050505050565b5f80546001600160a01b038381166001600160a01b0319831681178455604051919092169283917f8be0079c531659141344cd1fd0a4f28419497f9722a3daafe3b4186f6b6457e09190a35050565b6001600160a01b0381168114610199575f5ffd5b50565b634e487b7160e01b5f52604160045260245ffd5b5f82601f8301126101bf575f5ffd5b81516001600160401b038111156101d8576101d861019c565b604051601f8201601f19908116603f011681016001600160401b03811182821017156102065761020661019c565b60405281815283820160200185101561021d575f5ffd5b8160208501602083015e5f918101602001919091529392505050565b5f5f5f5f5f60a0868803121561024d575f5ffd5b855161025881610185565b60208701519095506001600160401b03811115610273575f5ffd5b61027f888289016101b0565b604088015190955090506001600160401b0381111561029c575f5ffd5b6102a8888289016101b0565b606088015190945090506001600160401b038111156102c5575f5ffd5b6102d1888289016101b0565b92505060808601516102e281610185565b809150509295509295909350565b600181811c9082168061030457607f821691505b60208210810361032257634e487b7160e01b5f52602260045260245ffd5b50919050565b601f82111561036c57805f5260205f20601f840160051c8101602085101561034d5750805b601f840160051c820191505b8181101561012f575f8155600101610359565b505050565b81516001600160401b0381111561038a5761038a61019c565b61039e8161039884546102f0565b84610328565b6020601f8211600181146103d0575f83156103b95750848201515b5f19600385901b1c1916600184901b17845561012f565b5f84815260208120601f198516915b828110156103ff57878501518255602094850194600190920191016103df565b508482101561041c57868401515f19600387901b60f8161c191681555b50505050600190811b01905550565b608051612b8d6104665f395f818161034601528181610ebe015281816119070152818161195101528181611ae40152611b340152612b8d5ff3fe608060405234801561000f575f5ffd5b506004361061023e575f3560e01c806393a0449811610135578063d4febb96116100b4578063e9c7c8ca11610079578063e9c7c8ca14610564578063eb3155b514610577578063f2fde38b1461058a578063f653258e1461059d578063f9609f08146105a5575f5ffd5b8063d4febb9614610523578063d83de686146104af578063de64211914610536578063e064b9bb14610549578063e8a3d4851461055c575f5ffd5b8063b4eb7514116100fa578063b4eb7514146104af578063b6363cf2146104c2578063bba06f27146104d5578063c3702989146104e8578063c7b8a75e14610510575f5ffd5b806393a044981461044657806395d89b4114610459578063aa26963714610461578063aff947c414610474578063b4696dbf1461049c575f5ffd5b8063397f8c8c116101c157806362a2434b1161018657806362a2434b146104085780636829db41146102b5578063715018a61461041b57806383b2e886146104235780638da5cb5b14610436575f5ffd5b8063397f8c8c1461037e578063537d3c501461039357806353dc1dd3146103a657806354095227146103ce5780635bebed7e146103f5575f5ffd5b80632fb74e62116102075780632fb74e62146102db578063313ce567146102ee578063344ff101146102fd57806334c457431461033157806338d52e0f14610344575f5ffd5b806288d3e51461024257806301ffc9a71461027d57806306fdde03146102a057806310dfce1b146102b55780631af2574e146102c8575b5f5ffd5b61026a610250366004612416565b6001600160a01b03165f9081526004602052604090205490565b6040519081526020015b60405180910390f35b61029061028b36600461242f565b6105b8565b6040519015158152602001610274565b6102a86105e2565b6040516102749190612456565b61026a6102c33660046124c9565b6106a2565b61026a6102d6366004612523565b610749565b61026a6102e936600461258d565b61076b565b60405160128152602001610274565b61026a61030b366004612416565b6001600160a01b03165f9081525f516020612b385f395f51905f52602052604090205490565b61026a61033f3660046125e3565b61078c565b7f00000000000000000000000000000000000000000000000000000000000000005b6040516001600160a01b039091168152602001610274565b61039161038c36600461267c565b6107ea565b005b61026a6103a136600461258d565b61083f565b61026a6103b4366004612416565b6001600160a01b03165f9081526003602052604090205490565b7fb419a3e8264d03c5da9315fb9617f069307274561d78c35809e10a1cfb7156025461026a565b61026a6104033660046126a6565b610898565b61026a610416366004612523565b6108ea565b610391610900565b61026a6104313660046126ce565b610913565b5f546001600160a01b0316610366565b61026a6104543660046126ce565b61095e565b6102a86109a9565b61039161046f3660046124c9565b6109e7565b61026a610482366004612416565b6001600160a01b03165f9081526002602052604090205490565b6103916104aa36600461267c565b610a0e565b61026a6104bd366004612523565b610a5f565b6102906104d0366004612707565b610b03565b61026a6104e3366004612707565b610b61565b61026a6104f6366004612416565b6001600160a01b03165f9081526001602052604090205490565b61026a61051e36600461272f565b610c8a565b610391610531366004612799565b610d12565b61026a6105443660046127d8565b610d1d565b61026a61055736600461272f565b610d44565b6102a8610d91565b6103916105723660046124c9565b610dcf565b61026a610585366004612861565b610def565b610391610598366004612416565b610e6a565b61026a610ea7565b61026a6105b3366004612707565b610f34565b5f6001600160e01b0319821663daa68d4960e01b14806105dc57506105dc8261104e565b92915050565b7fb419a3e8264d03c5da9315fb9617f069307274561d78c35809e10a1cfb71560380546060915f516020612b385f395f51905f52916106209061289b565b80601f016020809104026020016040519081016040528092919081815260200182805461064c9061289b565b80156106975780601f1061066e57610100808354040283529160200191610697565b820191905f5260205f20905b81548152906001019060200180831161067a57829003601f168201915b505050505091505090565b60405162461bcd60e51b815260206004820152606360248201527f436f6e666964656e7469616c455243373534303a2073796e63206465706f736960448201527f742f6d696e742064697361626c65643b2075736520726571756573744465706f60648201527f736974202b206465706f7369742872656365697665722c20636f6e74726f6c6c60848201526265722960e81b60a48201525f9060c4015b60405180910390fd5b5f61075f610758878787611082565b84846110f6565b90505b95945050505050565b5f610781338661077c87878761121e565b611228565b90505b949350505050565b5f6107978833610b03565b883390916107ba57604051630f3e596760e31b81526004016107409291906128d3565b50506107d388886107cc89898961121e565b868661129e565b90506107df81336112f5565b979650505050505050565b6107f26112ff565b6107fc823361132b565b8233909161082f576040516367cfe80560e01b815260048101929092526001600160a01b03166024820152604401610740565b505061083b82826113a5565b5050565b5f61084a84336114ea565b8433909161087d576040516367cfe80560e01b815260048101929092526001600160a01b03166024820152604401610740565b505061088c338686868661129e565b905061078481336112f5565b5f6108a382336114ea565b823390916108d6576040516367cfe80560e01b815260048101929092526001600160a01b03166024820152604401610740565b50506108e3338484611228565b9392505050565b5f61075f6108f9878787611082565b84846114f3565b6109086112ff565b6109115f611618565b565b5f61091e843361132b565b84339091610951576040516367cfe80560e01b815260048101929092526001600160a01b03166024820152604401610740565b50506107848484846114f3565b5f610969843361132b565b8433909161099c576040516367cfe80560e01b815260048101929092526001600160a01b03166024820152604401610740565b50506107848484846110f6565b7fb419a3e8264d03c5da9315fb9617f069307274561d78c35809e10a1cfb71560480546060915f516020612b385f395f51905f52916106209061289b565b6109ef6112ff565b5f6109fb858585611082565b9050610a078183611667565b5050505050565b610a166112ff565b610a20823361132b565b82339091610a53576040516367cfe80560e01b815260048101929092526001600160a01b03166024820152604401610740565b505061083b8282611667565b5f60405162461bcd60e51b81526004016107409060208082526064908201527f436f6e666964656e7469616c455243373534303a2073796e632077697468647260408201527f61772f72656465656d2064697361626c65643b2075736520726571756573745260608201527f656465656d202b2072656465656d2872656365697665722c20636f6e74726f6c6080820152636c65722960e01b60a082015260c00190565b5f5f516020612b385f395f51905f526001600160a01b03848116908416148061078457506001600160a01b038085165f90815260018301602090815260408083209387168352929052205465ffffffffffff16421115949350505050565b5f6001600160a01b038216610b895760405163d66a33e760e01b815260040160405180910390fd5b610b938233610b03565b82339091610bb657604051630f3e596760e31b81526004016107409291906128d3565b50506001600160a01b0382165f9081526004602052604081205490610bda8161179e565b6001600160a01b0385165f9081526004602052604090208190559050610bff81611818565b5f5f610c09611822565b91509150610c1884838361185c565b9450610c2430856118b6565b505f610c3088876118f7565b9050876001600160a01b0316876001600160a01b03167fe86fdcbbfbfb3465ef5adbe8a24ff52891385becd7520c3c2c4831c5cb87f04a83604051610c7791815260200190565b60405180910390a3505050505092915050565b5f610c9584336114ea565b84339091610cc8576040516367cfe80560e01b815260048101929092526001600160a01b03166024820152604401610740565b5050610cd48633610b03565b86339091610cf757604051630f3e596760e31b81526004016107409291906128d3565b5050610d06868686868661129e565b905061076281336112f5565b61083b3383836119c7565b5f610d2e33886107cc89898961121e565b9050610d3a81336112f5565b9695505050505050565b5f610d4f8633610b03565b86339091610d7257604051630f3e596760e31b81526004016107409291906128d3565b50505f610d85878761077c88888861121e565b905061075f81336112f5565b7fb419a3e8264d03c5da9315fb9617f069307274561d78c35809e10a1cfb71560580546060915f516020612b385f395f51905f52916106209061289b565b610dd76112ff565b5f610de3858585611082565b9050610a0781836113a5565b5f610dfa82336114ea565b82339091610e2d576040516367cfe80560e01b815260048101929092526001600160a01b03166024820152604401610740565b5050610e398433610b03565b84339091610e5c57604051630f3e596760e31b81526004016107409291906128d3565b50505f61088c858585611228565b610e726112ff565b6001600160a01b038116610e9b57604051631e4fbdf760e01b81525f6004820152602401610740565b610ea481611618565b50565b60405163344ff10160e01b81523060048201525f907f00000000000000000000000000000000000000000000000000000000000000006001600160a01b03169063344ff10190602401602060405180830381865afa158015610f0b573d5f5f3e3d5ffd5b505050506040513d601f19601f82011682018060405250810190610f2f91906128ed565b905090565b5f6001600160a01b038216610f5c5760405163d66a33e760e01b815260040160405180910390fd5b610f668233610b03565b82339091610f8957604051630f3e596760e31b81526004016107409291906128d3565b50506001600160a01b0382165f9081526002602052604081205490610fad8161179e565b6001600160a01b0385165f9081526002602052604090208190559050610fd281611818565b5f5f610fdc611822565b91509150610feb848383611a6f565b9450610ff78786611a93565b50866001600160a01b0316866001600160a01b03167e55da3782a2d8d50f7eb73d32d738b48c89f98d2856d2a84bb4c19ae74626358760405161103c91815260200190565b60405180910390a35050505092915050565b5f6001600160e01b031982166312563ca960e21b14806105dc57506301ffc9a760e01b6001600160e01b03198316146105dc565b5f8361108c611ad4565b6001600160a01b031663d0571e428233878760236040518663ffffffff1660e01b81526004016110c095949392919061295c565b5f604051808303815f87803b1580156110d7575f5ffd5b505af11580156110e9573d5f5f3e3d5ffd5b5092979650505050505050565b5f6001600160a01b03831661111e5760405163d66a33e760e01b815260040160405180910390fd5b6111288233610b03565b8233909161114b57604051630f3e596760e31b81526004016107409291906128d3565b50505f6111588386611add565b6001600160a01b0385165f908152600160205260408120549192509061117e9083611ba9565b6001600160a01b0386165f90815260016020526040902081905590506111a381611818565b6111bd816111b85f546001600160a01b031690565b611c3a565b6111c78186611c3a565b60408051338152602081018490525f916001600160a01b0380881692908916917faa9f37369e1b63157f509c0f9b4b366c6dcdf7ffdf40af5213ab6f441fd60b3891015b60405180910390a4505f95945050505050565b5f8361108c611c44565b5f806001600160a01b03851661125d5760405163ee457ebf60e01b81526001600160a01b039091166004820152602401610740565b505f6001600160a01b03841661129257604051638d51880160e01b81526001600160a01b039091166004820152602401610740565b50610784848484611c4d565b5f5f6112ab878787611228565b90505f6112bc338989858989611e57565b90505f6112dc888a6112d7856112d15f611f4f565b88611f58565b611c4d565b90506112e88382611ffb565b9998505050505050505050565b61083b828261201d565b5f546001600160a01b031633146109115760405163118cdaa760e01b8152336004820152602401610740565b5f611334611ad4565b6040516382027b6d60e01b8152600481018590526001600160a01b03848116602483015291909116906382027b6d90604401602060405180830381865afa158015611381573d5f5f3e3d5ffd5b505050506040513d601f19601f820116820180604052508101906108e391906129a1565b6001600160a01b0381166113cc5760405163d66a33e760e01b815260040160405180910390fd5b6113d582611818565b6001600160a01b0381165f908152600360205260408120546113f790846120a1565b6001600160a01b0383165f908152600360205260409020819055905061141c81611818565b611431816111b85f546001600160a01b031690565b61143b8183611c3a565b6001600160a01b0382165f9081526004602052604081205461145d9085611ba9565b6001600160a01b0384165f908152600460205260409020819055905061148281611818565b611497816111b85f546001600160a01b031690565b6114a18184611c3a565b826001600160a01b03167fec58bd7026b07d862cd93fbb48da498adc457c91d35a4680c84b23fc751e7e29856040516114dc91815260200190565b60405180910390a250505050565b5f611334611c44565b5f6001600160a01b03831661151b5760405163d66a33e760e01b815260040160405180910390fd5b6115258233610b03565b8233909161154857604051630f3e596760e31b81526004016107409291906128d3565b505061155384611818565b5f61155f833087611228565b905061156a81611818565b6001600160a01b0384165f9081526003602052604081205461158c9083611ba9565b6001600160a01b0386165f90815260036020526040902081905590506115b181611818565b6115c6816111b85f546001600160a01b031690565b6115d08186611c3a565b60408051338152602081018490525f916001600160a01b0380881692908916917f280f06cd2d7c5d7b6a7087e4228f224f243703c9cbd44772e10599e475972ce9910161120b565b5f80546001600160a01b038381166001600160a01b0319831681178455604051919092169283917f8be0079c531659141344cd1fd0a4f28419497f9722a3daafe3b4186f6b6457e09190a35050565b6001600160a01b03811661168e5760405163d66a33e760e01b815260040160405180910390fd5b61169782611818565b6001600160a01b0381165f908152600160205260408120546116b990846120a1565b6001600160a01b0383165f90815260016020526040902081905590506116de81611818565b6116f3816111b85f546001600160a01b031690565b6116fd8183611c3a565b6001600160a01b0382165f9081526002602052604081205461171f9085611ba9565b6001600160a01b0384165f908152600260205260409020819055905061174481611818565b611759816111b85f546001600160a01b031690565b6117638184611c3a565b826001600160a01b03167fc3510882237e31f06830eeb3919134c1618750e79c09433fbce2abe5c057d994856040516114dc91815260200190565b5f6117a7611ad4565b60405163d56497c360e01b81526001600160a01b03919091169063d56497c3906117d89085906023906004016129c0565b6020604051808303815f875af11580156117f4573d5f5f3e3d5ffd5b505050506040513d601f19601f820116820180604052508101906105dc91906128ed565b610ea481306120aa565b5f5f61182c610ea7565b91506118567fb419a3e8264d03c5da9315fb9617f069307274561d78c35809e10a1cfb7156025490565b90509091565b5f5f61187a8561187586611870600161179e565b611ba9565b612101565b90505f61189684611870835b61189190600a612ad4565b61179e565b90506118a28282612123565b92506118ad83611818565b50509392505050565b5f806001600160a01b0384166118eb5760405163ee457ebf60e01b81526001600160a01b039091166004820152602401610740565b506108e3835f84611c4d565b5f61190182611818565b61192b827f0000000000000000000000000000000000000000000000000000000000000000612145565b604051632df5f6bf60e11b81526001600160a01b038481166004830152602482018490527f00000000000000000000000000000000000000000000000000000000000000001690635bebed7e906044016020604051808303815f875af1158015611997573d5f5f3e3d5ffd5b505050506040513d601f19601f820116820180604052508101906119bb91906128ed565b90506105dc8184611c3a565b6001600160a01b038381165f8181527fb419a3e8264d03c5da9315fb9617f069307274561d78c35809e10a1cfb7156016020908152604080832094871680845294825291829020805465ffffffffffff191665ffffffffffff8716908117909155825190815291515f516020612b385f395f51905f529493927f921a218a75d18e8ec5704851e6b234a85725b21a2521ce889622c35dedc1fa1292908290030190a350505050565b5f80611a82856118758561187085611886565b90505f61189685611870600161179e565b5f806001600160a01b038416611ac857604051638d51880160e01b81526001600160a01b039091166004820152602401610740565b506108e35f8484611c4d565b5f610f2f61214f565b5f611b08827f0000000000000000000000000000000000000000000000000000000000000000612145565b60405163eb3155b560e01b81526001600160a01b038481166004830152306024830152604482018490527f0000000000000000000000000000000000000000000000000000000000000000169063eb3155b5906064016020604051808303815f875af1158015611b7a573d5f5f3e3d5ffd5b505050506040513d601f19601f82011682018060405250810190611b9e91906128ed565b90506105dc81611818565b5f611bb2611ad4565b6001600160a01b031663d1de592a611bcb8560236121e4565b611bd68560236121e4565b6040516001600160e01b031960e085901b168152600481019290925260248201526044016020604051808303815f875af1158015611c16573d5f5f3e3d5ffd5b505050506040513d601f19601f820116820180604052508101906108e391906128ed565b61083b82826120aa565b5f610f2f6121fa565b5f5f516020612b385f395f51905f5281806001600160a01b038716611ca857611c7a83600201548661224e565b8092508193505050611c9182828560020154611f58565b9050611c9c816122f0565b60028301819055611d37565b6001600160a01b0387165f908152602084905260409020548781611ceb576040516317fe473760e21b81526001600160a01b039091166004820152602401610740565b50611cf681876122fa565b9093509150611d06838383611f58565b9150611d11826122f0565b611d1b828961231f565b506001600160a01b0387165f9081526020849052604090208190555b611d4a8286611d455f611f4f565b611f58565b93506001600160a01b038616611d7f57611d68836002015485611ffb565b9050611d73816122f0565b60028301819055611dd1565b6001600160a01b0386165f90815260208490526040902054611da19085612329565b9050611dac816122f0565b611db6818761231f565b6001600160a01b0386165f9081526020849052604090208190555b6001600160a01b03871615611dea57611dea848861231f565b6001600160a01b03861615611e0357611e03848761231f565b611e0c846122f0565b83866001600160a01b0316886001600160a01b03167f67500e8d0ed826d2194f514dd0d8124f35648ab6e3fb5e6ed867134cffe661e960405160405180910390a45050509392505050565b5f846001600160a01b03163b5f03611e7a57611e736001612332565b9050610d3a565b6040516346083bfd60e01b81526001600160a01b038616906346083bfd90611eae908a908a90899089908990600401612ae2565b6020604051808303815f875af1925050508015611ee8575060408051601f3d908101601f19168201909252611ee5918101906128ed565b60015b611e73573d808015611f15576040519150601f19603f3d011682016040523d82523d5f602084013e611f1a565b606091505b5080515f03611f4757604051638d51880160e01b81526001600160a01b0387166004820152602401610740565b805181602001fd5b5f6117a7611c44565b5f611f61611c44565b6001600160a01b031663973ab10b611f79865f6121e4565b611f848660236121e4565b611f8f8660236121e4565b6040516001600160e01b031960e086901b1681526004810193909352602483019190915260448201526064016020604051808303815f875af1158015611fd7573d5f5f3e3d5ffd5b505050506040513d601f19601f8201168201806040525081019061078491906128ed565b5f612004611c44565b6001600160a01b03166341aa0080611bcb8560236121e4565b6120318260061a60f81b600160f81b161590565b61083b5761203d611c44565b604051630f8e573b60e21b8152600481018490526001600160a01b0383811660248301529190911690633e395cec906044015b5f604051808303815f87803b158015612087575f5ffd5b505af1158015612099573d5f5f3e3d5ffd5b505050505050565b5f612004611ad4565b6120be8260061a60f81b600160f81b161590565b61083b576120ca611ad4565b604051635ca4b5b160e11b8152600481018490526001600160a01b038381166024830152919091169063b9496b6290604401612070565b5f61210a611ad4565b6001600160a01b03166396ce1ec7611bcb8560236121e4565b5f61212c611ad4565b6001600160a01b03166330297400611bcb8560236121e4565b61083b828261237d565b5f4661a4b10361215e57505f90565b4662066eee03612181575073d464b198f06756a1d00be223634b85e0a731c22990565b46617a69036121a357507344c00793ad4975617b3b5fc27d4fb78e772c823690565b60405162461bcd60e51b81526020600482015260166024820152752737bc1d102ab739bab83837b93a32b21031b430b4b760511b6044820152606401610740565b5f82156121f157826108e3565b6108e38261239d565b5f4661a4b10361220957505f90565b4662066eee0361222c575073d464b198f06756a1d00be223634b85e0a731c22990565b46617a69036121a357507339847aeba923cc7367d4684194091d022b3f854890565b5f5f5f5f61225a611c44565b6001600160a01b031663f30c42606122738860236121e4565b61227e8860236121e4565b6040516001600160e01b031960e085901b1681526004810192909252602482015260440160408051808303815f875af11580156122bd573d5f5f3e3d5ffd5b505050506040513d601f19601f820116820180604052508101906122e19190612b15565b909450925050505b9250929050565b610ea481306123db565b5f5f5f5f612306611c44565b6001600160a01b03166386fc3bc36122738860236121e4565b61083b82826123db565b5f611bb2611c44565b5f61233b611c44565b6001600160a01b031663d56497c383612354575f612357565b60015b6040516001600160e01b031960e084901b1681526117d89160ff16905f906004016129c0565b6123918260061a60f81b600160f81b161590565b61083b5761203d611ad4565b5f60288260638111156123b2576123b261292c565b60f81b6001600160f81b031916901c60084660e01b6001600160e01b031916901c179050919050565b6123ef8260061a60f81b600160f81b161590565b61083b576120ca611c44565b80356001600160a01b0381168114612411575f5ffd5b919050565b5f60208284031215612426575f5ffd5b6108e3826123fb565b5f6020828403121561243f575f5ffd5b81356001600160e01b0319811681146108e3575f5ffd5b602081525f82518060208401528060208501604085015e5f604082850101526040601f19601f83011684010191505092915050565b5f5f83601f84011261249b575f5ffd5b50813567ffffffffffffffff8111156124b2575f5ffd5b6020830191508360208285010111156122e9575f5ffd5b5f5f5f5f606085870312156124dc575f5ffd5b84359350602085013567ffffffffffffffff8111156124f9575f5ffd5b6125058782880161248b565b90945092506125189050604086016123fb565b905092959194509250565b5f5f5f5f5f60808688031215612537575f5ffd5b85359450602086013567ffffffffffffffff811115612554575f5ffd5b6125608882890161248b565b90955093506125739050604087016123fb565b9150612581606087016123fb565b90509295509295909350565b5f5f5f5f606085870312156125a0575f5ffd5b6125a9856123fb565b935060208501359250604085013567ffffffffffffffff8111156125cb575f5ffd5b6125d78782880161248b565b95989497509550505050565b5f5f5f5f5f5f5f60a0888a0312156125f9575f5ffd5b612602886123fb565b9650612610602089016123fb565b955060408801359450606088013567ffffffffffffffff811115612632575f5ffd5b61263e8a828b0161248b565b909550935050608088013567ffffffffffffffff81111561265d575f5ffd5b6126698a828b0161248b565b989b979a50959850939692959293505050565b5f5f6040838503121561268d575f5ffd5b8235915061269d602084016123fb565b90509250929050565b5f5f604083850312156126b7575f5ffd5b6126c0836123fb565b946020939093013593505050565b5f5f5f606084860312156126e0575f5ffd5b833592506126f0602085016123fb565b91506126fe604085016123fb565b90509250925092565b5f5f60408385031215612718575f5ffd5b612721836123fb565b915061269d602084016123fb565b5f5f5f5f5f60808688031215612743575f5ffd5b61274c866123fb565b945061275a602087016123fb565b935060408601359250606086013567ffffffffffffffff81111561277c575f5ffd5b6127888882890161248b565b969995985093965092949392505050565b5f5f604083850312156127aa575f5ffd5b6127b3836123fb565b9150602083013565ffffffffffff811681146127cd575f5ffd5b809150509250929050565b5f5f5f5f5f5f608087890312156127ed575f5ffd5b6127f6876123fb565b955060208701359450604087013567ffffffffffffffff811115612818575f5ffd5b61282489828a0161248b565b909550935050606087013567ffffffffffffffff811115612843575f5ffd5b61284f89828a0161248b565b979a9699509497509295939492505050565b5f5f5f60608486031215612873575f5ffd5b61287c846123fb565b925061288a602085016123fb565b929592945050506040919091013590565b600181811c908216806128af57607f821691505b6020821081036128cd57634e487b7160e01b5f52602260045260245ffd5b50919050565b6001600160a01b0392831681529116602082015260400190565b5f602082840312156128fd575f5ffd5b5051919050565b81835281816020850137505f828201602090810191909152601f909101601f19169091010190565b634e487b7160e01b5f52602160045260245ffd5b60648110610ea457634e487b7160e01b5f52602160045260245ffd5b8581526001600160a01b03851660208201526080604082018190525f906129869083018587612904565b905061299183612940565b8260608301529695505050505050565b5f602082840312156129b1575f5ffd5b815180151581146108e3575f5ffd5b828152604081016129d083612940565b8260208301529392505050565b634e487b7160e01b5f52601160045260245ffd5b6001815b6001841115612a2c57808504811115612a1057612a106129dd565b6001841615612a1e57908102905b60019390931c9280026129f5565b935093915050565b5f82612a42575060016105dc565b81612a4e57505f6105dc565b8160018114612a645760028114612a6e57612a8a565b60019150506105dc565b60ff841115612a7f57612a7f6129dd565b50506001821b6105dc565b5060208310610133831016604e8410600b8410161715612aad575081810a6105dc565b612ab95f1984846129f1565b805f1904821115612acc57612acc6129dd565b029392505050565b5f6108e360ff841683612a34565b6001600160a01b03868116825285166020820152604081018490526080606082018190525f906107df9083018486612904565b5f5f60408385031215612b26575f5ffd5b50508051602090910151909290915056feb419a3e8264d03c5da9315fb9617f069307274561d78c35809e10a1cfb715600a264697066735822122083a7894296ce9ac2f31afbdf95222e62249f6cb4bc31cb732a0ed3428f02128f64736f6c634300081c0033a2646970667358221220109063b37e76979d9b9ad2e7694319aa06be6c90448aa060d2d1fc88a90c5ca864736f6c634300081c0033",
  "linkReferences": {},
  "deployedLinkReferences": {},
  "immutableReferences": {},
  "inputSourceName": "project/contracts/factory/ConfidentialERC7540Factory.sol",
  "buildInfoId": "solc-0_8_28-e66a8e0a028a0ae8daf88d937613e573f088c9e1"
}